:020000040800F2
:10000000D8190020751D0008F95100080552000894
:100010000D520008155200081D5200080000000093
:100020000000000000000000000000002552000851
:1000300031520008000000003D52000849520008FB
:10004000D11D0008D11D0008D11D0008D11D0008D8
:10005000D11D0008D11D0008D11D0008D11D0008C8
:10006000D11D0008D11D0008D11D0008D11D0008B8
:10007000D11D0008D11D0008D11D0008D11D0008A8
:10008000D11D0008D11D0008D11D0008D11D000898
:10009000D11D0008D11D0008D11D0008D11D000888
:1000A000D11D0008D11D0008D11D0008D11D000878
:1000B000A152000855520008D11D0008D11D0008AA
:1000C000D11D0008D11D0008D11D0008D11D000858
:1000D000D11D0008D11D0008D11D000835300008D1
:1000E000D11D0008D11D0008AD520008D11D000827
:1000F000D11D0008D11D0008D11D0008D11D000828
:10010000D11D0008D11D0008D11D0008D11D000817
:10011000D11D0008D11D0008D11D0008D11D000807
:10012000D11D0008D11D0008D11D0008D11D0008F7
:10013000D11D0008D11D0008D11D0008D11D0008E7
:10014000D11D0008D11D0008D11D0008E152000892
:10015000D11D0008D11D0008D11D0008D11D0008C7
:10016000D11D0008D11D0008D11D0008D11D0008B7
:10017000D11D0008D11D0008D11D0008D11D0008A7
:10018000D11D0008D11D000880B485B000AF786093
:100190000023FB607B68DB684FF0FF325A607B68AE
:1001A000DB686FF080425A61FB7B43F08003FB7396
:1001B0007B7B43F008037B737B68DB68FA689A619A
:1001C0001437BD465DF8047B704700BF80B586B02C
:1001D00000AF78600023FB7400237B610023FB6089
:1001E000032003F021F87B68DB681B69FB607B69F7
:1001F00001337B617A69174B9A4201D9002324E0CD
:10020000FB68DB0FDBB2002BEAD000237B61FB68CD
:1002100043F00103FB607B68DB68FA681A617B6866
:10022000DB681B69FB607B6901337B617A69094B81
:100230009A4200D905E0FB6803F00103DBB2012B11
:10024000EDD0032002F0F0FFFB7C18461837BD46C6
:1002500080BD00BF400D030080B489B000AFF860DE
:10026000B960FA71BB800023FB76FB68DB78002B5A
:1002700022D100237B610023FB61BB880333002B69
:1002800000DA03339B107B61FB79FA6832339B0001
:1002900013449B683B610023FB6109E0BB681A685B
:1002A0003B691A60FB690133FB61BB680433BB60C7
:1002B000FA697B699A42F1D3FB7E18462437BD4622
:1002C0005DF8047B704700BF80B489B000AFF86070
:1002D000B9601346FB800023FB61FB880333002BCE
:1002E00000DA03339B10BB61FB68D3F8D0307B612D
:1002F0000023FB6109E07B691A68BB681A60FB692F
:100300000133FB61BB680433BB60FA69BB699A4285
:10031000F1D3BB6818462437BD465DF8047B7047AF
:1003200080B487B000AF78600B46FB7000233B6160
:100330000023FB737B680022DA707B6801229A70CD
:100340007B6840229A80FB78012B13D14FF0A043A9
:100350003B617B680122DA727B6808221A707B6835
:1003600004225A707B684FF4A072DA807B68022204
:100370001A7211E0FB78002B0ED1454B3B617B6874
:100380000022DA727B680C221A707B6806225A708F
:100390007B684FF4A062DA803A697B68DA603B6977
:1003A00003F500631A467B681A6100237B611CE039
:1003B0007B695A013B69134403F510631A46796857
:1003C0007B6904339B000B449A607B695A013B694B
:1003D000134403F530631A4679687B6914339B0034
:1003E0000B445A607B6901337B617B685B781A46FA
:1003F0007B699A42DCD83B6903F580631A467B68C7
:100400005A613B6903F588631A467B68C3F8CC20C0
:1004100000237B610FE07B695A013B69134403F5BC
:10042000A0631A4679687B6922339B000B449A606B
:100430007B6901337B617B681B781A467B699A4232
:10044000E9D800237B610FE07B691A033B69134401
:1004500003F580531A4679687B6932339B000B445D
:100460009A607B6901337B617B681B781A467B69E4
:100470009A42E9D83B6903F560631A467B68C3F882
:100480000C21FB7B18461C37BD465DF8047B70478A
:100490000000044080B586B000AF78600023FB7593
:1004A00000233B610023FB600023BB607B681B7A59
:1004B000012B42D17B68DB689B6BFB60BB7B6FF3DE
:1004C0000003BB737B685B7A002B03D0BB7B43F0DC
:1004D0001003BB737B68DB68FA689A6300233B6197
:1004E0007B68DB68DB683B613B7C6FF386133B74A6
:1004F000BB7C6FF38613BB74BB7C6FF34103BB748F
:10050000BB7C6FF3C303BB747B68DB683A69DA605A
:100510007868FFF75BFE7B68DB78012B39D13B7A8B
:10052000052262F344033B723B7A43F020033B72A3
:100530007B68DB68BA689A602BE07B68DB68DB6805
:100540003B613B7C43F040033B747B68DB683A696A
:10055000DA607868FFF73AFE0023FB60BB7B43F06C
:100560000103BB73BB7B43F00403BB73BB7B43F052
:100570000803BB737B685B7A002B03D0BB7B43F023
:100580001003BB737B68DB68FA689A63142002F07F
:100590006FFE7B68DB78012B10D17B68DB689B6882
:1005A000BB603B7A052262F344033B723B7A43F023
:1005B00020033B727B68DB68BA689A60FB7D184653
:1005C0001837BD4680BD00BF80B485B000AF7860ED
:1005D0000023FB730023BB603B7A43F001033B72B3
:1005E0007B68DB687A68D2689168BA680A439A6067
:1005F000FB7B18461437BD465DF8047B704700BF8F
:1006000080B485B000AF78600023FB730023BB602B
:100610003B7A43F001033B727B68DB687A68D268FF
:100620009168BA68D2430A409A60FB7B1846143737
:10063000BD465DF8047B704780B586B000AF78603A
:1006400039600023FB7400237B610023FB60FB689F
:1006500043F02003FB603B68DBB203F01F03DAB218
:10066000FB6862F38A13FB607B68DB68FA681A61D7
:100670007B68DB681B69FB607B6901337B617A699E
:10068000094B9A4200D906E0FB685B0903F00103BD
:10069000DBB2012BECD0032002F0C6FDFB7C184638
:1006A0001837BD4680BD00BF400D030080B586B041
:1006B00000AF78600023FB7400237B610023FB60A4
:1006C000FB6843F01003FB607B68DB68FA681A6123
:1006D0007B68DB681B69FB607B6901337B617A693E
:1006E000094B9A4200D906E0FB681B0903F001039D
:1006F000DBB2012BECD0032002F096FDFB7C184608
:100700001837BD4680BD00BF400D030080B584B0E2
:1007100000AF78600B46FB700023FB737B68DB68DF
:10072000DB68BB60FB7A6FF34513FB72FB7A6FF3F8
:100730008613FB72FB78012B04D1FB7A43F0200374
:10074000FB7206E0FB78002B03D1FB7A43F04003F9
:10075000FB727B68DB68BA68DA60322002F088FDE1
:10076000FB7B18461037BD4680BD00BF80B483B008
:1007700000AF78607B68DB685B6903F001031846B3
:100780000C37BD465DF8047B704700BF80B582B072
:1007900000AF78607868FFF7E9FF0346012B0CBFD4
:1007A00000230123DBB218460837BD4680BD00BFD9
:1007B00080B485B000AF78600023FB607B68DB68A5
:1007C0005B69FB607B68DB689B69FA681340FB60D0
:1007D000FB6818461437BD465DF8047B704700BFC0
:1007E00080B485B000AF78600B46FB707B681B69F6
:1007F0001B68FB60FB7803F00303DAB23B7B62F318
:1008000001033B737B681B69FA681A601437BD46A5
:100810005DF8047B704700BF80B58CB000AF786096
:10082000002387F82B3000237B6200233B620023E8
:10083000FB610023BB6100237B617B68D3F80C3133
:1008400000221A607B681B691B683B6297F82130A5
:100850006FF3C40387F821307B681B693A6A1A601A
:100860007B68DB7A012B41D178680321FFF7B8FF61
:100870007B68DB6880225A62FB8B202262F30F03C5
:10088000FB83BB8B802262F30F03BB837B68DB6837
:10089000FA699A62BA8BFB8B13449BB23B837B8BC6
:1008A000802262F30F037B837B68DB68BA69C3F83D
:1008B00004213A8B7B8B13449BB23B837B8B20229E
:1008C00062F30F037B837B68DB68BA69C3F8082196
:1008D0003A8B7B8B13449BB23B837B8B6FF30F0371
:1008E0007B837B68DB68BA69C3F80C2178681021C8
:1008F000FFF7A2FE7868FFF7D9FE7B681B6900222C
:100900001A617B681B6900225A617B681B694FF082
:10091000FF329A617B681B690022DA610023FB6267
:100920003AE07A68FB6A04339B0013449B681B68B7
:100930007B6297F82730C3F3C013DBB2002B0ED0D5
:1009400000237B6297F8273043F0400387F8273075
:1009500097F8273043F0080387F8273001E0002399
:100960007B627A68FB6A04339B0013449B687A6A53
:100970001A607A68FB6A04339B0013449B68002268
:100980001A617A68FB6A04339B0013449B68FF2258
:100990009A60FB6A0133FB627B685B781A46FB6AEC
:1009A0009A42BED80023FB6235E07A68FB6A1433B2
:1009B0009B0013445B681B68FB60FB7BC3F3C013A5
:1009C000DBB2002B0AD00023FB60FB7B43F040032B
:1009D000FB73FB7B43F00803FB7301E00023FB6028
:1009E0007A68FB6A14339B0013445B68FA681A60E8
:1009F0007A68FB6A14339B0013445B6800221A6117
:100A00007A68FB6A14339B0013445B68FF229A6088
:100A1000FB6A0133FB627B685B781A46FB6A9A4289
:100A2000C3D800237B617B7D43F001037B757B682A
:100A30001B697A68126911697A69D24311407A692F
:100A40000A431A617B68DB78012B1BD100233B61D1
:100A50003B7C43F001033B743B7C43F002033B745B
:100A60003B8A402262F38A033B82BB7C43F0010352
:100A7000BB747B8A402262F349037B827B681B69DB
:100A80003A691A63786800F007F897F82B3018462F
:100A90003037BD4680BD00BF80B584B000AF786000
:100AA0000023FB730023BB607B68DB6800229A6134
:100AB0007B68DB686FF080425A617868FFF764FBFF
:100AC0007B68DB78002B03D13B7A43F010033B7249
:100AD0007B7A43F008037B727B7A43F010037B72CE
:100AE0007B7A43F020037B72BB7A43F00403BB7232
:100AF000BB7A43F00803BB723B7A43F008033B72B6
:100B0000BB7A43F01003BB72BB7A43F02003BB7285
:100B1000FB7A43F04003FB723B7A43F004033B72E1
:100B20007B68DB687A68D2689169BA68D243114001
:100B3000BA680A439A61FB7B18461037BD4680BDF0
:100B400080B485B000AF78600023FB737B681B69BD
:100B50009B68BB603B7AC3F34103DBB2022B09D035
:100B6000032B04D0012B02D00323FB7305E00223E7
:100B7000FB7302E00123FB7300BFFB7B18461437B5
:100B8000BD465DF8047B704780B487B000AF7860E5
:100B90000023FB750023BB607B681B699B683B617E
:100BA0007B689B691B68FB603B7CC3F34103DBB242
:100BB000022B04D0BB896FF30A03BB8105E0BB891C
:100BC000032262F30A03BB8100BF7B689B69FA685A
:100BD0001A607B7A43F001037B727B681B697A6839
:100BE00012695168BA68D2431140BA680A435A6020
:100BF000FB7D18461C37BD465DF8047B704700BF7F
:100C000080B487B000AF786039600023FB740023A4
:100C1000FB600023BB603B685B78012B0FD13B6816
:100C20001B787A6804339B0013449B687B613B68A4
:100C30001B78012202FA03F39BB23B810EE03B6872
:100C40001B787A6814339B0013445B687B613B68B4
:100C50001B78012202FA03F39BB27B817B691B683C
:100C6000FB607B7BC3F3C013DBB2002B27D13B6857
:100C70009B689BB2C3F30A039AB2BB8962F30A036F
:100C8000BB813B68DB7803F00303DAB2BB7B62F322
:100C90008303BB733B68DB88DBB203F00F03DAB27C
:100CA000FB8962F38913FB81FB7B43F01003FB7329
:100CB0007B7B43F080037B73FA687B691A607B68F7
:100CC0001B697A681269D169BA680A43DA61FB7CE8
:100CD00018461C37BD465DF8047B704780B487B06A
:100CE00000AF786039600023FB740023FB600023B1
:100CF000BB603B685B78012B0FD13B681B787A683F
:100D000004339B0013449B687B613B681B78012282
:100D100002FA03F39BB23B810EE03B681B787A68D2
:100D200014339B0013445B687B613B681B78012292
:100D300002FA03F39BB27B817B7B6FF3C7137B7358
:100D4000FA687B691A607B681B697A681269D169E5
:100D5000BA68D2430A40DA61FB7C18461C37BD46AC
:100D60005DF8047B704700BF80B588B000AF786045
:100D700039600023FB770023BB6100237B610023E4
:100D80003B613B685B78012B40F0AB803B681B7894
:100D90007A6804339B0013449B681B687B613B6843
:100DA0001B787A6804339B0013449B681B693B6182
:100DB0003B685B69002B09D13B696FF312033B6110
:100DC0007B8A012262F3CC037B8222E03B685B6971
:100DD000C3F312023B6962F312033B613B685A6939
:100DE0003B689B6813445A1E3B689B68B2FBF3F355
:100DF0009BB2C3F309039AB27B8A62F3CC037B8272
:100E00003B68DB78012B04D1FB7C012262F34613A3
:100E1000FB743B681B787A6804339B0013449B681F
:100E20003A691A617B68DB78012B0AD13B681B7831
:100E30007A6804339B0013449B683A6812695A61CC
:100E400015E03B68DB78012B11D03B685B69002B18
:100E50000DD03B681B78012202FA03F3BB617B686B
:100E60001B697A681269516BBA690A435A633B6815
:100E7000DB78012B14D17B681B699B68FB60FB68E6
:100E8000C3F30D239BB203F00103002B04D1FB7DC0
:100E900043F02003FB7503E0FB7D43F01003FB757B
:100EA000FB7D43F00403FB75FB7D43F08003FB7582
:100EB0003B681B787A6804339B0013449B687A690B
:100EC0001A603B68DB78012B40F088803B68D9686A
:100ED0003B681A783B685B699BB27868FFF7BCF99E
:100EE0007CE03B681B787A6814339B0013445B6892
:100EF0001B687B613B681B787A6814339B00134442
:100F00005B681B693B613B685B69002B0DD13B68EB
:100F10009B68C3F312023B6962F312033B617B8A55
:100F2000012262F3CC037B821FE03B685A693B6875
:100F30009B6813445A1E3B689B68B2FBF3F39BB259
:100F4000C3F309039AB27B8A62F3CC037B827B8A68
:100F5000C3F3C9039BB23A68926802FB03F3C3F37D
:100F600012023B6962F312033B613B681B787A68AB
:100F700014339B0013445B683A691A617B68DB7821
:100F8000012B09D13B681B787A6814339B0013440A
:100F90005B683A6812695A613B68DB78012B0CD1B7
:100FA0003B685B79002B04D0FB7D43F02003FB758D
:100FB00003E0FB7D43F01003FB75FB7D43F004036E
:100FC000FB75FB7D43F08003FB753B681B787A68FB
:100FD00014339B0013445B687A691A60FB7F1846E0
:100FE0002037BD4680BD00BF80B489B000AF7860B7
:100FF00039600023FB770023BB6100233B610023A2
:10100000BB603B685B78012B6FD17B689B697B6120
:101010007B691B683B617B691B69BB603B685B69E3
:10102000002B09D13B7A6FF306033B72BB7A012296
:1010300062F3C403BB7223E03B685A693B689B6858
:101040009A420ED93B689A683B685A613B689B6834
:10105000DBB203F07F03DAB23B7A62F306033B7242
:1010600009E03B685B69DBB203F07F03DAB23B7AED
:1010700062F306033B72BB7A012262F3C403BB72C4
:10108000BA687B691A617B68DB78012B09D13B6800
:101090001B787A6804339B0013449B683A68126992
:1010A0005A61FB7C43F00403FB74FB7C43F0800338
:1010B000FB743A697B691A607B68DB78002B75D119
:1010C0003B685B69002B71D03B681B78012202FAF8
:1010D00003F3BA691343BB617B681B697A681269C1
:1010E000516BBA690A435A6360E03B681B787A68BF
:1010F00014339B0013445B681B683B613B681B789F
:101100007A6814339B0013445B681B69BB603B68BF
:101110005B69002B0FD13B689B68DBB203F07F0358
:10112000DAB23B7A62F306033B72BB7A012262F3C6
:10113000C403BB7212E03B689A683B685A613B6823
:101140009B68DBB203F07F03DAB23B7A62F30603FB
:101150003B72BB7A012262F3C403BB723B681B780B
:101160007A6814339B0013445B68BA681A617B6821
:10117000DB78012B09D13B681B787A6814339B001C
:1011800013445B683A6812695A61FB7C43F00403BC
:10119000FB74FB7C43F08003FB743B681B787A682C
:1011A00014339B0013445B683A691A60FB7F18464E
:1011B0002437BD465DF8047B704700BF80B487B01C
:1011C00000AF786039600023FB750023FB603B684B
:1011D0005B78012B1CD13B681B787A6804339B0039
:1011E00013449B683B613B691B68FB60FB7BC3F35B
:1011F000C013DBB2002B03D0FB7B43F04003FB7337
:10120000BB7B43F02003BB73FA683B691A6011E0B3
:101210003B681B787A6814339B0013445B683B611E
:101220003B691B68FB60BB7B43F02003BB73FA6820
:101230003B691A60FB7D18461C37BD465DF8047B90
:10124000704700BF80B487B000AF7860396000237A
:10125000FB740023FB603B685B78012B08D13B6883
:101260001B787A6804339B0013449B687B6107E01A
:101270003B681B787A6814339B0013445B687B617E
:101280007B691B68FB60BB7B6FF34513BB733B68DB
:10129000DB78032B03D03B68DB78022B03D1FB7B8D
:1012A00043F01003FB73FA687B691A60FB7C1846F5
:1012B0001C37BD465DF8047B704700BF80B485B025
:1012C00000AF78607B681B699B69FB607B681B696A
:1012D000DB69FA681340FB60FB681B0C1846143787
:1012E000BD465DF8047B704780B485B000AF786080
:1012F0000B46FB70FB787A6814339B0013445B68E1
:101300009B68FB607B681B695B69FA681340FB6044
:10131000FB6818461437BD465DF8047B704700BF74
:1013200080B485B000AF78607B681B699B69FB6007
:101330007B681B69DB69FA681340FB60FB689BB242
:1013400018461437BD465DF8047B704780B487B0FB
:1013500000AF786000233B61FB7C43F0C003FB746B
:10136000BB7C012262F3C403BB743B7C182262F392
:1013700006033B747B685B6D3A691A617B68DB78B6
:10138000012B16D10023FB607B685B6D7A6802F24B
:10139000CC525A617B685B6D1B68FB60FB7B43F042
:1013A0008003FB734FF08023FB607B685B6DFA6802
:1013B0001A601C37BD465DF8047B704780B485B069
:1013C00000AF78607B689B7A002B1BD07B681B6921
:1013D0009B68FB603B7BC3F30003DBB2012B11D1A5
:1013E0007B6803F586731B68BB603B7A6FF3410330
:1013F0003B723B7A6FF300033B727B68D3F80C318E
:10140000BA681A601437BD465DF8047B704700BFA8
:1014100080B582B000AF0120012100F091FF0220D1
:10142000012100F08DFF0420012100F089FF01233C
:101430003B710023BB71F0233B600023FB71012350
:101440007B713B460A48194601F06AFA30233B603B
:101450003B460848194601F063FA01233B603B46CE
:101460000548194601F05CFA0837BD4680BD00BF4B
:1014700000000240000802400004024080B584B031
:1014800000AF87ED010AD7ED017A77EEA77AB0EECB
:10149000670A04F063FAF0EE407AFDEEE77A17EEA1
:1014A000903AFB732648012101F0D6FA25483021F5
:1014B00001F0C4FA2448F02101F0C0FAFB7B03F0EC
:1014C00020035B11002B03D01F48102101F0C4FA48
:1014D000FB7B03F010031B11002B03D01A482021C3
:1014E00001F0BAFAFB7B03F00803DB10002B03D0FA
:1014F0001548402101F0B0FAFB7B03F004039B1078
:10150000002B03D01048802101F0A6FAFB7B03F0EA
:1015100002035B10002B03D00A48102101F09CFA53
:10152000FB7B03F00103002B03D00648202101F0D0
:1015300093FA0348012101F081FA1037BD4680BDBE
:1015400000040240000802400000024080B400AFE6
:10155000BD465DF8047B704780B483B000AF03469E
:10156000FB71FB79002B01D0012B00E000BF0C3791
:10157000BD465DF8047B704780B400AFBD465DF8A2
:10158000047B704780B400AFBD465DF8047B7047B4
:1015900080B400AFBD465DF8047B704780B400AFF7
:1015A000BD465DF8047B704780B400AFBD465DF872
:1015B000047B704780B582B000AF1020012100F09D
:1015C000BFFE01233B710023BB714FF470433B60AE
:1015D0000023FB7101237B713B460348194601F050
:1015E0009FF90837BD4680BD0010024080B582B02B
:1015F00000AF0346FB71FB7903F00803DB10002BFF
:1016000005D020484FF4805101F018FA04E01D483D
:101610004FF4805101F020FAFB7903F004039B1092
:10162000002B05D017484FF4005101F007FA04E0F1
:1016300014484FF4005101F00FFAFB7903F0020354
:101640005B10002B05D00F484FF4004101F0F6F974
:1016500004E00C484FF4004101F0FEF9FB7903F07F
:101660000103002B05D007484FF4804101F0E6F953
:1016700004E004484FF4804101F0EEF90837BD461C
:1016800080BD00BF0010024080B483B000AF78601E
:101690007B689B889BB2C3F308039BB218460C3748
:1016A000BD465DF8047B704780B485B000AF7860BC
:1016B0000B467B800023FB737B681B889AB27B8878
:1016C00013409BB2002B02D00123FB7301E00023E7
:1016D000FB73FB7B18461437BD465DF8047B7047EF
:1016E00080B487B000AF78600B467B800023FB603E
:1016F00000237B610023BB600023FB747B88DBB28B
:101700005B09DBB2BB607B8803F01F037B617B69F5
:10171000012202FA03F37B61BB68012B06D17B68CF
:101720009B899BB27A6913407B610FE0BB68022BF7
:1017300006D17B681B8A9BB27A6913407B6105E006
:101740007B689B8A9BB27A6913407B617B881B0A0A
:101750009BB2FB60FB68012202FA03F3FB607B682B
:101760001B889BB2FA681340FB607B69002B05D095
:10177000FB68002B02D00123FB7401E00023FB7403
:10178000FB7C18461C37BD465DF8047B704700BFE4
:1017900080B582B000AF0346FB71FB79002B04D10A
:1017A0004FF4806003F058FE06E04FF4806003F0D1
:1017B00063FE034BFA799A750837BD4680BD00BFBA
:1017C000F401002080B485B000AF78603960002358
:1017D000FB600023FB6007E0FB687A68134400228B
:1017E0001A70FB680133FB60FA683B689A42F3DDCC
:1017F0001437BD465DF8047B704700BF0000000051
:1018000080B582B000AF87ED000BD7E9000141A39E
:10181000D3E9002304F0F6FC0346002B0AD00C2089
:10182000FFF7E4FE002000F0E5F997ED000B00F073
:1018300075F968E0D7E9000138A3D3E9002304F083
:10184000E1FC0346002B1ED00620FFF7CFFED7E9B0
:1018500000014FF000024FF0804304F08BFB024682
:101860000B4643EC172BB0EE470AF0EE670A00F088
:1018700055F900BF00F06AFA0346002BFAD10120A7
:1018800000F0B8F93FE0D7E9000126A3D3E900232F
:1018900004F0B8FC0346002B1ED00920FFF7A6FE7B
:1018A000D7E900014FF000024FF0804304F062FBE3
:1018B00002460B4643EC172BB0EE470AF0EE670AE0
:1018C00000F02CF900BF00F041FA0346002BFAD1DA
:1018D000012000F08FF916E00320FFF787FE0020BB
:1018E00000F088F9D7E900014FF00002084B04F03E
:1018F00041FB02460B4643EC172BB0EE470AF0EED5
:10190000670A00F00BF90837BD4680BDAFF30080D1
:1019100000001040000000000070A7400000000020
:101920000024B340000000000070B740AFF3008017
:1019300080B582B000AF0420012100F001FD0E4807
:101940000921002201F096F84FF400733B60022356
:101950003B7103237B710023BB710023FB713B466A
:101960000548194600F0DCFF4FF00040002100F070
:10197000C9FC0837BD4680BD0008024080B500AFF5
:10198000644B00221A70634B60225A70614B9022A4
:101990009A70614B00221A705F4B00225A705E4BA6
:1019A00002229A7001205C4903F08EF85A4B002203
:1019B0001A70594B00225A70574B01229A7002201C
:1019C000554903F081F8544B00221A70524B1622ED
:1019D0005A70514B28229A7005204F4903F074F831
:1019E0004D4B00221A704C4B60225A704A4BA02279
:1019F0009A700520484903F067F800F095F9464BC6
:101A000020221A70444B0B225A70434B4A229A7080
:101A10000620414903F058F83F4B00221A703E4B14
:101A200001225A703C4B4D229A7007203A4903F02C
:101A30004BF8394BC1221A70374BBE225A70364BC5
:101A4000FF229A700820344903F03EF8324B5422AA
:101A50001A70314B7F225A702F4BFF229A70092047
:101A60002D4903F031F82C4B00221A702A4B20220A
:101A70005A70294B46229A700A20274903F024F80D
:101A8000254B07221A70244BC0225A70224B212268
:101A90009A700B20204903F017F81F4B00221A7090
:101AA0001D4B00225A701C4B00229A700C201A49C0
:101AB00003F00AF80D20184903F006F80E20164925
:101AC00003F002F8144B00221A70134B00225A70D4
:101AD000114B81229A700F200F4902F0F5FF0E4B37
:101AE00000221A700C4B00225A700B4BF0229A7095
:101AF0000320094902F0E8FF074B33221A70064B16
:101B000033225A70044B33229A700420024902F0A7
:101B1000DBFF80BD0C0200202001002080B586B0D4
:101B200000AF87ED000BD7E900014FF000022E4B0C
:101B300004F020FA02460B46C7E9002397ED000B9C
:101B400003F022FE53EC102B1046194604F082FBE2
:101B50000346BB60BB68184604F07CF802460B469F
:101B6000D7E9000103F028FF02460B46C7E904232A
:101B700007F10803FB60FB681A781C4B9A70FB683E
:101B80005A781A4B5A70FB689A78184B1A700320CF
:101B9000164902F099FFD7E904014FF00002144BF7
:101BA00004F0BEF802460B46C7E9042397ED040B88
:101BB00003F086FE0346BB60BB680F2B01DC1023DD
:101BC000BB60FB681A78094B9A70FB685A78074B20
:101BD0005A70FB689A78054B1A700420034902F08A
:101BE00073FF1837BD4680BD00002440200100204F
:101BF0000000704180B582B000AF0346FB71FB79F5
:101C0000012B09D10D4B00221A700C4B00225A7087
:101C10000A4B18229A7008E0084B00221A70074BF2
:101C200008225A70054B98229A700520034902F049
:101C30004BFF00F079F80837BD4680BD2001002039
:101C400080B582B000AF0346FB71FB79032B39D816
:101C500001A252F823F000BF691C0008791C00089B
:101C6000971C0008B51C00081B4B5B7843F0600311
:101C7000DAB2194B5A7025E0174B5B7843F04003FA
:101C8000DAB2154B5A70144B5B7823F02003DAB2AA
:101C9000114B5A7016E0104B5B7843F02003DAB218
:101CA0000D4B5A700C4B5B7823F04003DAB20A4BB1
:101CB0005A7007E0084B5B7823F06003DAB2064BFA
:101CC0005A7000BF0520044902F0FEFE00F02CF817
:101CD0000837BD4680BD00BF0C02002080B582B031
:101CE00000AF0346FB71FB79002B02D0012B08D01B
:101CF0000FE00C4B5B7863F07F03DAB2094B5A704C
:101D000007E0084B5B7803F07F03DAB2054B5A70AB
:101D100000BF0520034902F0D7FE00F005F80837A0
:101D2000BD4680BD0C02002080B500AF064B0022EE
:101D30001A70054B00225A70034B00229A7005203E
:101D4000014902F0C1FE80BD2001002080B500AF36
:101D50001020074902F05AFE054B5B7803F001039F
:101D6000002B01D0012300E00023184680BD00BFF6
:101D70002001002080B582B000AF104B7B60104B7B
:101D80003B6007E03B681A1D3A607A68111D796074
:101D900012681A603A680B4B9A42F3D30A480B490F
:101DA0004FF000028842B8BF40F8042BFFF6FAAFAC
:101DB00000F066FA0837BD4680BD00BF70640008B9
:101DC000000000202001002020010020D41100206C
:101DD00080B400AFFEE700BF80B584B000AFF8600C
:101DE0007A603B600B46FB72F86801F0D3F9F86843
:101DF00000F01CF8FB683A68C3F8E425FB68BA6990
:101E0000C3F8E825FB687A68C3F8EC25FB7AF86824
:101E1000194602F0D3FFFB68D3F8E8351B689847F2
:101E2000F86801F0E9F91037BD4680BD80B483B091
:101E300000AF7860002318460C37BD465DF8047B80
:101E4000704700BF80B584B000AF786007F1080329
:101E50007868194601F0FAFD3B7A03F01F03012B65
:101E60000AD0022B0FD0002B14D107F10803786899
:101E7000194601F00DFA16E007F1080378681946D3
:101E800001F056FA0FE007F108037868194601F0EF
:101E900083FA08E03B7A23F07F03DBB278681946C7
:101EA00003F014F900BF002318461037BD4680BD6B
:101EB00080B584B000AF78600B46FB70FB78002BD8
:101EC00045D17B6803F55D73FB607B6893F8113146
:101ED000032B4FD1FB68DA69FB689B689A4221D9D2
:101EE000FB68DA69FB689B68D21AFB68DA617B6879
:101EF000DB78012B06D1FB68DA68FB689B681A4423
:101F0000FB68DA60FB68DA68FB689968FB68DB6984
:101F1000994238BF0B469BB2786811461A4603F0C7
:101F20003BFA27E07B68D3F8E4351B69002B0AD025
:101F30007B6893F81231032B05D17B68D3F8E43525
:101F40001B6978689847786803F03AFA12E07B6872
:101F5000D3F8E4359B69002B0CD07B6893F81231E1
:101F6000032B07D17B68D3F8E4359B69FA7878684E
:101F700011469847002318461037BD4680BD00BF64
:101F800080B584B000AF78600B46FB70FB78002B07
:101F90006CD17B6803F58E73FB607B6893F811311D
:101FA000022B56D1FB68DA69FB689B689A421CD900
:101FB000FB68DA69FB689B68D21AFB68DA617B68A8
:101FC000DB78012B06D1FB68DA68FB689B681A4452
:101FD000FB68DA60FB68DA68FB68DB699BB27868EB
:101FE00011461A4603F0A4F933E0FB681B6AFA684D
:101FF0009268B3FBF2F102FB01F29B1A002B14D1A1
:10200000FB681A6AFB689B689A420ED3FB681A6ADF
:10201000FB685B6A9A4208D278680021002203F0CC
:1020200087F9FB6800225A6213E07B68D3F8E43535
:10203000DB68002B0AD07B6893F81231032B05D1A3
:102040007B68D3F8E435DB6878689847786803F0F4
:10205000CFF97B6893F81631012B1AD1786800F01C
:102060001DF87B68002283F8162112E07B68D3F804
:10207000E4355B69002B0CD07B6893F81231032B9D
:1020800007D17B68D3F8E4355B69FA787868114644
:102090009847002318461037BD4680BD80B483B0F2
:1020A00000AF78607B681B69044A12685A6000239D
:1020B00018460C37BD465DF8047B704710020020BF
:1020C00080B582B000AF786078680021402200239C
:1020D00002F0F6FE786880214022002302F0F0FE34
:1020E0007B68012283F812217B68D3F8E8355B68AE
:1020F0007A68927810469847002318460837BD46FC
:1021000080BD00BF80B582B000AF78607B68D3F837
:10211000E8351B6998477B6893F813217B6883F83F
:1021200012217B68032283F8122100231846083706
:10213000BD4680BD80B582B000AF78607B6893F803
:1021400012217B6883F813217B68042283F8122113
:102150007B68D3F8E835DB689847002318460837D2
:10216000BD4680BD80B582B000AF78607B68D3F893
:10217000E435DB69002B05D07B68D3F8E435DB69F7
:1021800078689847002318460837BD4680BD00BFD1
:1021900080B582B000AF78600B46FB707B68D3F8E7
:1021A000E4351B68FA787868114698477B68D3F85D
:1021B000E8359B689847002318460837BD4680BD20
:1021C00080B582B000AF78600B46FB707B68D3F8B7
:1021D000E4355B68FA78786811469847002318461A
:1021E0000837BD4680BD00BF80B582B000AF7860C3
:1021F0007B68D3F8E4351B6A786898470023184653
:102200000837BD4680BD00BF80B582B000AF7860A2
:102210007B68D3F8E4355B6A7868984700231846F2
:102220000837BD4680BD00BF80B582B000AF786082
:102230007B68D3F8E8355B6998477B68012283F8AF
:102240001521002318460837BD4680BD80B582B0F1
:1022500000AF78607B68D3F8E8359B6998477B6866
:10226000D3F8E4355B687868002198477B680022E2
:1022700083F81521002318460837BD4680BD00BFEE
:1022800080B582B002AF00F0F1FE03F0C9F84FF460
:10229000805003F0E1F802F051FBFFF7B9F8FFF7C7
:1022A00089F900F03FF9104800F082F90C20FFF79F
:1022B0009DF99FED0E0AFFF7E1F8FFF739FBFFF7F5
:1022C0005DFB03F03FF90A4B00930A4801210A4ADB
:1022D0000A4BFFF781FD0A4800F0B8F8084B0122CD
:1022E0001A7030BFFDE700BF240800200000000086
:1022F00000000020240200204C000020F4000020F8
:102300001808002080B485B000AF786039600023E1
:10231000FB600A4B9B68FB60FB6823F07843FB6023
:102320007A683B681343FA681343FB60034BFA680F
:102330009A601437BD465DF8047B70470038024050
:1023400080B483B000AF78600B46FB70FB78002B45
:1023500006D0094B084A116B7A680A431A6306E0F3
:10236000054B054A116B7A68D2430A401A630C3751
:10237000BD465DF8047B70470038024080B483B0EE
:1023800000AF78600B46FB70FB78002B06D0094B42
:10239000084A516B7A680A435A6306E0054B054ABE
:1023A000516B7A68D2430A405A630C37BD465DF8D8
:1023B000047B70470038024080B483B000AF78607F
:1023C0000B46FB70FB78002B06D0094B084A116CBA
:1023D0007A680A431A6406E0054B054A116C7A686C
:1023E000D2430A401A640C37BD465DF8047B70473F
:1023F0000038024080B483B000AF78600B46FB70B9
:10240000FB78002B06D0094B084A516C7A680A43C6
:102410005A6406E0054B054A516C7A68D2430A407B
:102420005A640C37BD465DF8047B704700380240A3
:1024300080B485B000AF78607B681B68FB60FB6888
:1024400018461437BD465DF8047B704780B584B0EC
:1024500000AF78600B48FFF7EBFF0346BB6007F166
:1024600008031B68FB60D7ED037AFCEEE77A17EEF2
:10247000903ABB60BB68DAB27B681A701037BD4611
:1024800080BD00BF1400060880B483B000AF786040
:10249000002318460C37BD465DF8047B704700BF2B
:1024A00080B500AF0248FFF7C3FF0346184680BD62
:1024B0000078FF1F80B582B000AF78604FF40060F5
:1024C00002F0CAFF144B1B78012B1BD000F018FB45
:1024D000F32000F06DFB1148796800F035FB1048DF
:1024E0006FF0FF0100F030FB00F020FB0A4B0122EF
:1024F0001A700948FFF7C8FF4FF4006002F0BCFFF4
:10250000012304E04FF4006002F0B6FF00231846F8
:102510000837BD4680BD00BF180800200078FF1FA7
:10252000007AFF1F80B58CB000AF4FF4807001219E
:10253000FFF760FF01200121FFF702FF032387F867
:102540002C300423BB62002387F82F3007F12803C7
:102550001548194600F0E4F900237B7500233B621F
:102560000023BB61012387F8243000233B61002353
:102570003B750023BB6000233B604FF480337B60DE
:102580000023FB603B46184600F0D2F807F1100329
:102590000648194600F078F80448012100F0F0F8E8
:1025A0003037BD4680BD00BF000002400020014022
:1025B00080B586B000AF786000237B6100237B820A
:1025C0002A48FFF735FF78617B697B827B8A07EEBB
:1025D000903AB8EE677ADFED267A27EE277ADFEDBC
:1025E000257AC7EE277A7B68C3ED007A2248FFF789
:1025F0001FFF78617B697B827B8A07EE903AB8EE99
:10260000677ADFED1B7A27EE277ADFED1A7AC7EEBD
:10261000277AC7ED037A1948FFF70AFF78617B69CB
:102620007B827B8A07EE903AB8EE677ADFED107A0C
:1026300027EE277ADFED0F7AC7EE277AC7ED027A09
:1026400097ED027AD7ED037A37EE677ADFED0C7AF1
:10265000C7EE277A7B68C3ED037A7B68094A5A6024
:102660007B68FA689A601837BD4680BD2A7AFF1FDA
:102670003333534000F07F452C7AFF1F2E7AFF1F23
:102680000000A0425C8F423F80B485B000AF78600C
:1026900039600023FB600023FB727B685B68FB6092
:1026A000FB6823F0407323F48073FB603B681B7965
:1026B0001A023B681B681343FA681343FB607B688C
:1026C000FA685A607B689B68FB60FA68174B134096
:1026D000FB603B681A693B68DB681A433B689B6890
:1026E0001A433B685B795B001343FA681343FB6052
:1026F0007B68FA689A607B68DB6AFB60FB6823F49E
:102700007003FB603B681B7D013BDAB2FB7A13432D
:10271000FB72FB7A1B05FA681343FB607B68FA685F
:10272000DA621437BD465DF8047B7047FDF7FFC0E1
:1027300080B485B000AF78600023FB600E4B5B680F
:10274000FB60FA680D4B1340FB607B681A687B687E
:102750005B681A437B689B681A437B68DB6813439A
:10276000FA681343FB60044BFA685A601437BD469D
:102770005DF8047B704700BF00230140E030FCFFA0
:1027800080B483B000AF78600B46FB70FB78002B01
:1027900006D07B689B6843F001027B689A6005E085
:1027A0007B689B6823F001027B689A600C37BD460A
:1027B0005DF8047B704700BF80B483B000AF034670
:1027C0003960FB713B6812221A80034B18460C37A4
:1027D000BD465DF8047B70476800002080B483B07C
:1027E00000AF03463960FB713B6804221A80034B3B
:1027F00018460C37BD465DF8047B70478800002002
:1028000080B582B000AF03463960FB71FB79002BC5
:1028100005D1084808493A6801F072F904E0074810
:1028200005493A6801F06CF9034B18460837BD4674
:1028300080BD00BFD863000844080020FC63000886
:1028400080B582B000AF03463960FB71044805498A
:102850003A6801F055F9034B18460837BD4680BD6C
:10286000206400084408002080B582B000AF034611
:102870003960FB71FB79002B05D1084808493A689B
:1028800001F03EF904E0074805493A6801F038F9DB
:10289000034B18460837BD4680BD00BF34640008AE
:1028A000440800204464000880B582B000AF0346AD
:1028B0003960FB71FB79002B05D1084808493A685B
:1028C00001F01EF904E0054805493A6801F018F9DD
:1028D000034B18460837BD4680BD00BF546400084E
:1028E0004408002080B582B000AF03463960FB7118
:1028F000FB79002B05D1084808493A6801F000F936
:1029000004E0054805493A6801F0FAF8034B184617
:102910000837BD4680BD00BF606400084408002041
:1029200080B487B000AF7860396000237B610023FA
:102930003B610023FB6000237B6176E07B69012221
:1029400002FA03F33B613B681A683B691340FB6082
:10295000FA683B699A4265D17B681A687B695B00BB
:10296000032101FA03F3DB431A407B681A607B689A
:102970001A683B681B7919467B695B0001FA03F30F
:102980001A437B681A603B681B79012B03D03B68B4
:102990001B79022B2ED17B689A687B695B0003212F
:1029A00001FA03F3DB431A407B689A607B689A68FC
:1029B0003B685B7919467B695B0001FA03F31A43B4
:1029C0007B689A607B685A687B699BB2012101FA37
:1029D00003F3DB431A407B685A607B685A683B68A4
:1029E0009B7919467B699BB201FA03F39BB21A43A8
:1029F0007B685A607B68DA687B699BB25B00032165
:102A000001FA03F3DB431A407B68DA607B68DA681B
:102A10003B68DB7919467B695B0001FA03F31A43D3
:102A20007B68DA607B6901337B617B690F2B85D919
:102A30001C37BD465DF8047B704700BF80B483B08F
:102A400000AF78600B467B807B687A881A830C37EE
:102A5000BD465DF8047B704780B483B000AF7860FA
:102A60000B467B807B687A885A830C37BD465DF8BD
:102A7000047B704780B485B000AF786013460A4687
:102A80007A807B700023FB600023BB607A787B88B0
:102A900003F007039B0002FA03F3FB607B88DB086B
:102AA0009BB21A467B88DB089BB219467B680831CB
:102AB00053F821107B8803F007039B000F2000FAD6
:102AC00003F3DB4319407B68083243F822107B880C
:102AD000DB089BB21A467B68083253F82220FB6859
:102AE0001343BB607B88DB089BB21A467B680832C5
:102AF000B96843F822101437BD465DF8047B70476F
:102B000080B400AF064B1B69002B05DA044B054A65
:102B10005A60034B044A5A60BD465DF8047B704717
:102B2000003C024023016745AB89EFCD80B400AF84
:102B3000044B044A126942F000421A61BD465DF836
:102B4000047B7047003C024080B584B000AF7860E1
:102B500039600823FB7300F06DF80346FB73FB7BC1
:102B6000082B1ED1114B114A126922F440721A61CE
:102B70000E4B0E4A126942F400721A610B4B0B4A5B
:102B8000126942F001021A617B683A681A6000F02B
:102B900051F80346FB73054B044A126922F0010207
:102BA0001A61FB7B18461037BD4680BD003C0240D1
:102BB00080B483B000AF7860034B7A68DA600C377A
:102BC000BD465DF8047B7047003C024080B483B092
:102BD00000AF0823FB71164BDB6803F48033002B36
:102BE00002D00123FB711CE0114BDB6803F01003E2
:102BF000002B02D00523FB7113E00D4BDB6803F0C3
:102C0000EF03002B02D00623FB710AE0084BDB68C0
:102C100003F00203002B02D00723FB7101E008231D
:102C2000FB71FB7918460C37BD465DF8047B704795
:102C3000003C024080B582B000AF0823FB71FFF773
:102C4000C5FF0346FB7103E0FFF7C0FF0346FB71BE
:102C5000FB79DBB2012BF7D0FB79DBB218460837E2
:102C6000BD4680BD80B400AF0C4B4FF4E1321A601A
:102C70000A4B00229A80094B0022DA80074B4FF45E
:102C8000C0621A81054B00229A81044B0C225A81A2
:102C900000231846BD465DF8047B704734080020C9
:102CA00080B400AF00231846BD465DF8047B704732
:102CB00080B584B000AFF860B9607A60FB68232B00
:102CC00000F29B8001A252F823F000BFFB2D000808
:102CD000FB2D0008FB2D0008FB2D0008FB2D000834
:102CE000FB2D0008FB2D0008FB2D0008FB2D000824
:102CF000FB2D0008FB2D0008FB2D0008FB2D000814
:102D0000FB2D0008FB2D0008FB2D0008FB2D000803
:102D1000FB2D0008FB2D0008FB2D0008FB2D0008F3
:102D2000FB2D0008FB2D0008FB2D0008FB2D0008E3
:102D3000FB2D0008FB2D0008FB2D0008FB2D0008D3
:102D4000FB2D0008FB2D0008FB2D00085D2D000861
:102D5000A72D0008FB2D0008FB2D0008BB681B7881
:102D60001A46BB6801331B781B021A43BB68023347
:102D70001B781B041A43BB6803331B781B061343E1
:102D80001A46214B1A60BB681A791F4B1A71BB682F
:102D90005A791D4B5A71BB689A791B4B9A71012065
:102DA00000F03CF92AE0184B1B68DAB2BB681A70D5
:102DB000BB680133144A1268120AD2B21A70BB6897
:102DC0000233114A1268120CD2B21A70BB68033374
:102DD0000D4A1268120ED2B21A70BB6804330A4A46
:102DE00012791A70BB680533074A52791A70BB68AA
:102DF0000633054A92791A7000E000BF0023184696
:102E00001037BD4680BD00BF9000002080B485B063
:102E100000AF78603960134B9B79072B0023FB6070
:102E20000DE0114B1B68591C0F4A1160FA68796854
:102E30000A4411780D4AD154FB680133FB60FA68EB
:102E40003B689A42EDD3084B1B68B3F5006F02D183
:102E5000054B00221A60002318461437BD465DF862
:102E6000047B704790000020CC010020D409002092
:102E700080B584B000AF786039604FF4006002F034
:102E8000EBFA7B681B78063B042B00F2B18001A2B1
:102E900052F823F0A92E00080D2F00085D2F00081E
:102EA000F12F0008892F00087B6804331B781A462D
:102EB000544B1A607B6803331B781B021A46514B34
:102EC0001A607B6802331B781B041A464D4B1A604C
:102ED0007B6801331B781B061A464A4B1A604A4826
:102EE0001A21FEF76FFC484B06221A70454B1B68EF
:102EF0001846FFF7DFFA03461A46434B5A70434819
:102F00008121414A022302F0A5F872E03E480A21DD
:102F1000FEF758FCFFF7C4FAF8603B4B07221A7023
:102F2000FB68DAB2384B5A70FB6803F47F431B0A24
:102F3000DAB2354B9A70FB6803F47F031B0CDAB2EC
:102F4000314BDA70FB681B0EDAB22F4B1A712F4827
:102F500081212D4A052302F07DF84AE02A4B082200
:102F60001A702B4B1A78284B5A70294B5A78264BDB
:102F70009A70274B9A78244BDA7024488121224A90
:102F8000042302F067F834E07B68013321481946D6
:102F9000082203F087F91F4B93ED007BB0EE470A40
:102FA000F0EE670AFEF72CFC012002F075FA012012
:102FB00002F072FA7B6809331B781846FEF740FE70
:102FC000012002F069FA7B680A331B781846FEF785
:102FD00085FE7B680B3310481946042203F062F922
:102FE0000D4BD3ED007AB0EE670AFEF747FA00E02A
:102FF00000BF4FF4006002F03FFA0023184610377C
:10300000BD4680BD140200202801002024020020BB
:103010008C000020A8010020A401002080B483B00F
:1030200000AF0346FB71002318460C37BD465DF820
:10303000047B704780B500AF0B4840F22551FEF786
:103040004FFB0346002B03D000200021FFF7DEFEDC
:1030500005480821FEF728FB0346002B02D0024852
:10306000FEF712FB80BD00BF0048004080B500AFF6
:10307000154B154AD2F8882042F47002C3F8882014
:10308000124B124A126842F001021A600F4B0022E2
:103090009A600E4A0D4B1B6823F0847323F480332F
:1030A00013600A4B0A4A5A60084B084A126822F415
:1030B00080221A60054B0022DA6000F00BF8024B08
:1030C0004FF000629A6080BD00ED00E000380240E1
:1030D0001030002480B483B000AF00237B60002355
:1030E0003B60284B274A126842F480321A60012361
:1030F0003B603B68012B40D1224B224A126C42F0CC
:1031000080521A64204B204A126842F400421A602E
:103110001C4B1C4A92689A601A4B1A4A92689A6031
:10312000184B184A926842F480529A60154B174A1D
:103130005A60144B134A126842F080721A6000BF42
:10314000104B1B6803F00073002BF9D0104B40F2BA
:1031500002621A600B4B0B4A926822F003029A60DB
:10316000084B084A926842F002029A6000BF054B81
:103170009B6803F00C03082BF9D10C37BD465DF8B2
:10318000047B70470038024000700040052A410768
:10319000003C024080B584B000AF7860012001217E
:1031A000FFF7CEF84FF4C053BB6002237B730223BA
:1031B0003B730023BB730023FB7307F108030D4827
:1031C0001946FFF7ADFB0B480B210A22FFF752FC13
:1031D00008480C210A22FFF74DFC4FF480400121E2
:1031E000FFF708F980200121FFF7C8F81037BD4626
:1031F00080BD00BF0000024080B584B000AF7860A1
:103200004FF4C06001F06AFD43233B7301237B73DD
:103210000323BB730123FB7307F10C03184601F072
:103220006FFD1037BD4680BD80B485B000AF7860BB
:103230000023FB607A6813461B019B1A9B001A4609
:103240000A4BA3FB0213D21A520813449B08BB601B
:10325000FB680133FB60FA68BB689A4200D900E062
:10326000F6E71437BD465DF8047B70472549922484
:1032700080B582B000AF78607B684FF47A7202FB51
:1032800003F31846FFF7D0FF0837BD4680BD00BFE7
:1032900080B584B000AF786039600023FB733B6871
:1032A0005B78092B39D801A252F823F0FD320008CF
:1032B000113300081B330008073300081B330008D4
:1032C000DF320008D53200081B330008F332000853
:1032D000E93200087868396800F036F922E0786849
:1032E000396800F00DFA1DE07868396800F046FA98
:1032F00018E07868396800F0BBFA13E0786839683C
:1033000000F0E6FA0EE07868396800F00BFB09E09F
:103310007868396800F072FB04E07868396800F07A
:10332000DBFB00BFFB7B18461037BD4680BD00BFEE
:1033300080B584B000AF786039600023FB737B6890
:1033400093F81231032B1CD13B689B88DBB2012B15
:1033500011D87B68D3F8E4359B687868396898475A
:103360003B68DB88002B0BD1FB7B002B08D17868F6
:1033700002F026F80AE07868396800F0ADFB05E055
:1033800004E07868396800F0A7FB00BFFB7B1846B3
:103390001037BD4680BD00BF80B584B000AF7860F7
:1033A00039600023FB733B689B88BB733B685B7889
:1033B000012B39D0032B02D0002B6BD0BCE07B68F3
:1033C00093F81231022B02D0032B0DD026E0BB7BE9
:1033D000002B08D0BB7B802B05D0BB7B78681946BF
:1033E00001F074FE1FE01EE03B685B88002B0AD1F1
:1033F000BB7B002B07D0BB7B802B04D0BB7B7868CA
:10340000194601F063FE7B68D3F8E4359B68786861
:1034100039689847786801F0D3FF04E07868396824
:1034200000F05AFB00BF87E07B6893F81231022B53
:1034300002D0032B0DD027E0BB7B002B08D0BB7B39
:10344000802B05D0BB7B7868194601F03FFE20E059
:103450001FE03B685B88002B15D1BB7B002B0ED097
:10346000BB7B802B0BD0BB7B7868194601F06AFED2
:103470007B68D3F8E4359B68786839689847786842
:1034800001F09EFF05E004E07868396800F024FB55
:1034900000BF51E07B6893F81231022B02D0032B5E
:1034A0000DD043E0BB7B002B08D0BB7B802B05D02D
:1034B000BB7B7868194601F009FE3CE03BE0BB7B32
:1034C0005BB2002B15DABB7B03F07F0279681346F1
:1034D0009B001344DB000B4403F58C739B79002B9A
:1034E00003D0184B01221A601AE0164B00221A6012
:1034F00016E0BB7B5BB2002B12DBBA7B796813460C
:103500009B001344DB000B4403F55C739B79002B99
:1035100003D00C4B01221A6002E00A4B00221A6011
:1035200078680849022201F0E3FE04E0786839680F
:1035300000F0D2FA00BF00BFFB7B18461037BD4633
:1035400080BD00BFB801002080B584B000AF7860B6
:1035500039603B685B881B0A9BB2013B062B00F27B
:10356000B18001A252F823F085350008B735000874
:10357000E1350008C5360008C5360008B136000838
:10358000BB3600087B68D3F8EC351B687A68917805
:1035900007F10A02084611469847F8603B68DB8845
:1035A000402B04D07B6893F81231012B02D1082301
:1035B0007B818CE08BE07B68D3F8E4359B6A7A688A
:1035C000917807F10A02084611469847F860FB68AF
:1035D000013302221A707B68FA68C3F8F02576E09E
:1035E0003B685B88DBB2052B5CD801A252F823F064
:1035F00009360008233600083D3600085736000813
:10360000713600088B3600087B68D3F8EC355B68B0
:103610007A68917807F10A02084611469847F860DF
:1036200045E07B68D3F8EC359B687A68917807F1C0
:103630000A02084611469847F86038E07B68D3F8DC
:10364000EC35DB687A68917807F10A020846114682
:103650009847F8602BE07B68D3F8EC351B697A68F3
:10366000917807F10A02084611469847F8601EE073
:103670007B68D3F8EC355B697A68917807F10A02C8
:10368000084611469847F86011E07B68D3F8EC359E
:103690009B697A68917807F10A02084611469847B3
:1036A000F86004E07868396800F016FA24E00EE06B
:1036B0007868396800F010FA1EE07868396800F020
:1036C0000BFA19E07868396800F006FA14E07B8993
:1036D000002B11D03B68DB88002B0DD03B68DA88CB
:1036E0007B899A4238BF13469BB27B817B8978687D
:1036F000F9681A4601F0FCFD1037BD4680BD00BFD9
:1037000080B584B000AF786039603B689B88002B3F
:103710002DD13B68DB88002B29D13B685B88DBB26D
:1037200003F07F03FB737B6893F81231032B04D102
:103730007868396800F0D0F918E07B68FA7B83F884
:103740001421FB7B7868194601F038FD786801F098
:1037500037FEFB7B002B04D07B68022283F812210A
:1037600004E07B68012283F8122104E003E078681A
:10377000396800F0B1F91037BD4680BD80B582B020
:1037800000AF786039603B685B88DAB2374B1A70FB
:10379000364B1B78012B04D97868396800F09CF906
:1037A00060E07B6893F81231022B02D0032B1BD010
:1037B00053E02E4B1B78002B12D02C4B1A787B68D1
:1037C00083F810217B68032283F81221274B1B7892
:1037D00078681946FEF7DCFC786801F0F1FD41E0FD
:1037E000786801F0EDFD3DE0204B1B78002B12D1F5
:1037F0007B68022283F812211C4B1A787B6883F8BD
:1038000010211A4B1B7878681946FEF7D9FC7868A6
:1038100001F0D6FD20E07B6893F81021134B1B7854
:103820009A4215D07B6893F8103178681946FEF7F4
:10383000C7FC0E4B1A787B6883F810210B4B1B7862
:1038400078681946FEF7A4FC786801F0B9FD03E03A
:10385000786801F0B5FD05E004E07868396800F0AB
:103860003BF900BF0837BD4680BD00BFC401002042
:1038700080B582B000AF786039603B68DB88012B8F
:1038800004D07868396800F027F91BE07B6893F86A
:103890001231022B02D0032B06D00EE078680B49C0
:1038A000012201F025FD0DE07B6803F5887378683F
:1038B0001946012201F01CFD04E07868396800F027
:1038C0000BF900BF0837BD4680BD00BFBC0100201A
:1038D00080B582B000AF786039607B6893F81231B0
:1038E000023B012B13D80E4B01221A607B68D3F8E0
:1038F0001831002B05D00A4B1B6843F00202084B1D
:103900001A6078680649022201F0F2FC04E0786847
:10391000396800F0E1F800BF0837BD4680BD00BF40
:10392000C001002080B584B000AF7860396000230A
:10393000FB733B685B88012B0ED17B680122C3F8C7
:1039400018217B68D3F8E4359B6878683968984714
:10395000786801F035FD4BE03B685B88022B47D16E
:103960003B689B88DBB2002B42D17B681B695B689C
:10397000BB603B689B881B0A9BB2FB73FB7B013BD4
:10398000042B2BD801A252F823F000BFA139000864
:10399000AD390008B9390008C5390008D139000827
:1039A0003B7A012262F306133B7217E03B7A022254
:1039B00062F306133B7211E03B7A032262F30613B3
:1039C0003B720BE03B7A042262F306133B7205E084
:1039D0003B7A052262F306133B7200BF064BBA68BE
:1039E0001A607B68012283F81621786801F0E8FCF0
:1039F0001037BD4680BD00BF1002002080B582B0E8
:103A000000AF786039607B6893F81231023B012B7C
:103A100013D83B685B88012B0ED17B680022C3F86A
:103A200018217B68D3F8E4359B6878683968984733
:103A3000786801F0C5FC05E004E07868396800F0BA
:103A40004BF800BF0837BD4680BD00BF80B483B0CF
:103A500000AF786039607B6893F8CC253B681A70BA
:103A60007B6893F8CD253B685A707B6893F8CE3518
:103A70001A467B6893F8CF351B029BB213449AB267
:103A80003B685A807B6893F8D0351A467B6893F878
:103A9000D1351B029BB213449AB23B689A807B6873
:103AA00093F8D2351A467B6893F8D3351B029BB244
:103AB00013449AB23B68DA803B68DB881A467B681D
:103AC000C3F840217B68012283F811210C37BD46E1
:103AD0005DF8047B704700BF80B582B000AF7860AE
:103AE00039607868802101F0F1FA7868002101F0EE
:103AF000EDFA7868FDF72AFC0837BD4680BD00BFA7
:103B000080B586B000AFF860B9607A600023FB75BD
:103B1000FB68002B2FD0F86800F030F80346013323
:103B20009BB25B009AB27B681A80FB7D5A1CFA75C7
:103B3000BA6813447A681288D2B21A70FB7D5A1C94
:103B4000FA75BA68134403221A7010E0FB7D5A1C00
:103B5000FA75BA681A44FB68591CF9601B7813702F
:103B6000FB7D5A1CFA75BA68134400221A70FB6870
:103B70001B78002BEAD11837BD4680BD80B485B0D4
:103B800000AF78600023FB7305E0FB7B0133FB7320
:103B90007B6801337B607B681B78002BF5D1FB7B56
:103BA00018461437BD465DF8047B704780B586B073
:103BB00000AF786000237B617868FCF7E7FD03467F
:103BC000002B00F0B6807868FCF7F2FD03463B61FD
:103BD0003B69002B01D10023ACE0BB7CC3F3C003E5
:103BE000DBB2002B06D0786800F04CFA03467A6905
:103BF00013437B61BB7CC3F38003DBB2002B06D095
:103C0000786800F071F903467A6913437B613B7C65
:103C1000C3F34003DBB2002B09D00023FB603B7BE6
:103C200043F002033B737B68DB68FA685A61FB7CF4
:103C3000C3F3C013DBB2002B06D0786800F0B6F8EF
:103C400003467A6913437B617B7CC3F3C003DBB219
:103C5000002B06D0786800F0E9F803467A69134330
:103C60007B613B7CC3F3C003DBB2002B06D07868DA
:103C700000F0B0FA03467A6913437B613B7CC3F3DF
:103C80000013DBB2002B06D0786800F0BDFA0346C3
:103C90007A6913437B617B7CC3F30013DBB2002B97
:103CA00006D0786800F0A4FB03467A6913437B6171
:103CB0007B7CC3F34013DBB2002B06D0786800F0A6
:103CC0002DFC03467A6913437B61BB7CC3F300136D
:103CD000DBB2002B06D0786800F05CFC03467A6902
:103CE00013437B61BB7CC3F34013DBB2002B06D0D4
:103CF000786800F069FC03467A6913437B61FB7CBA
:103D0000C3F38013DBB2002B06D0786800F016F8FE
:103D100003467A6913437B613B7CC3F38003DBB2C8
:103D2000002B06D0786800F023F803467A69134325
:103D30007B617B6918461837BD4680BD80B584B06D
:103D400000AF7860094B1B685B6A7868984700236E
:103D5000FB60FB7B43F04003FB737B68DB68FA6826
:103D60005A61012318461037BD4680BD4800002027
:103D700080B584B000AF78607B68DB685B68FB600F
:103D80003B7BC3F38003DBB2002B04D0064B1B68E4
:103D90009B6A786898477B68DB68FA685A600123F9
:103DA00018461037BD4680BD4800002080B586B05B
:103DB00000AF78607B689B7A002B11D07B6803F59D
:103DC00086731B68FB603B7B6FF341033B733B7B5C
:103DD0006FF300033B737B68D3F80C31FA681A6009
:103DE00000233B613B7C43F001033B747B681B6910
:103DF0007A68126951683A69D2430A405A600A4B9C
:103E00001B689B697868984700237B61FB7D43F0C2
:103E10008003FB757B68DB687A695A610123184669
:103E20001837BD4680BD00BF4800002080B586B071
:103E300000AF78600023FB727B6893F81231FB724D
:103E4000274B1B685B69786898477B681B699B6890
:103E5000FB6000237B617B7D43F008037B757B68FF
:103E6000DB687A695A617B689B7A002B32D03B7B96
:103E7000C3F30003DBB2012B2CD17B6893F815311F
:103E8000012B27D1FB7ADBB2032B23D100233B612B
:103E90003B7C43F001033B747B68D3F80C317A68B8
:103EA000D2F80C2111683A690A431A603B7C43F04E
:103EB00002033B747B68D3F80C317A68D2F80C218A
:103EC00011683A690A431A60064B064A126942F0C1
:103ED00006021A61012318461837BD4680BD00BF8F
:103EE0004800002000ED00E080B586B000AF7860AB
:103EF00000233B610023BB607868FDF711FA78610D
:103F0000B4E07B6903F00103002B00F0A9803B695A
:103F1000DBB27868194600F071FB0346BB603B7A60
:103F2000C3F30003DBB2002B32D03B69012202FA5B
:103F300003F3FB607B681B697A681269516BFA684E
:103F4000D2430A405A630023BB603B7A43F001032B
:103F50003B727A683B6904339B0013449B68BA68E0
:103F60009A60474B1B685B683A69D2B27868114621
:103F700098477B68DB78012B0AD13B69002B07D17E
:103F80007B6893F81131042B02D17868FDF7DEF9D4
:103F90003B7AC3F3C003DBB2002B0DD00023BB6020
:103FA0003B7A43F008033B727A683B6904339B0019
:103FB00013449B68BA689A603B7AC3F30013DBB280
:103FC000002B0DD00023BB603B7A43F010033B7203
:103FD0007A683B6904339B0013449B68BA689A6013
:103FE0003B7AC3F38013DBB2002B0DD00023BB6000
:103FF0003B7A43F040033B727A683B6904339B0091
:1040000013449B68BA689A603B7AC3F34003DBB2FF
:10401000002B0DD00023BB603B7A43F002033B72C0
:104020007A683B6904339B0013449B68BA689A60C2
:104030003B7AC3F3C013DBB2002B11D07868396927
:1040400000F064F90023BB603B7A43F080033B72CD
:104050007A683B6904339B0013449B68BA689A6092
:104060003B6901333B617B695B087B617B69002BAA
:104070007FF447AF012318461837BD4680BD00BF07
:104080004800002080B586B000AF786000233B6117
:104090000023FB607868FDF711F978618FE07B6998
:1040A00003F00103002B00F084803B69DBB27868E9
:1040B0001946FDF719F90346FB603B7BC3F3000388
:1040C000DBB2002B48D00023FB603B7B43F00103B5
:1040D0003B737A683B6914339B0013445B68FA684E
:1040E0009A607B68DB78012B1FD17A683B691433B7
:1040F0009B0013445B681B69BB6079683A6913468F
:104100009B001344DB000B4403F55E735A68BB68E5
:10411000C3F31203D11A78683A6913469B0013441B
:10412000DB00034403F562735960294B1B681B686D
:104130003A69D2B27868114698477B68DB78012BE0
:104140000AD13B69002B07D17B6893F81131052B0D
:1041500002D17868FDF7FAF83B7BC3F34003DBB28A
:10416000002B0DD00023FB603B7B43F002033B732D
:104170007A683B6914339B0013445B68FA689A6061
:104180003B7BC3F3C003DBB2002B12D0104B1B6888
:104190009B68786898470023FB603B7B43F00803EB
:1041A0003B737A683B6914339B0013445B68FA687D
:1041B0009A603B6901333B617B695B087B617B698A
:1041C000002B7FF46CAF012318461837BD4680BD25
:1041D0004800002080B584B000AF7860094B1B68B0
:1041E000DB68786898470023FB603B7B43F008035B
:1041F0003B737B68DB68FA685A6101231846103705
:10420000BD4680BD4800002080B586B000AF786014
:1042100000233B613B7C43F010033B747B68DB680D
:104220007A68D26891693A69D2430A409A617B6898
:10423000DB681B6AFB603B7BC3F30303DBB21A46FC
:1042400013469B001344DB0003F55C737A68134448
:1042500004337B61BB7BC3F34303DBB2013B052B20
:1042600045D801A252F823F0EF420008814200082D
:10427000EF420008EF420008EF420008CB4200087E
:10428000BB89C3F30A139BB2002B1DD07B69DA688C
:10429000BB89C3F30A139BB2786811461A46FCF730
:1042A00013F87B69DA68BB89C3F30A139BB21A441B
:1042B0007B69DA607B699A69BB89C3F30A139BB295
:1042C0001A447B699A6113E012E07B6803F2CC53D5
:1042D000786819460822FBF7F7FF7B699A69BB8962
:1042E000C3F30A139BB21A447B699A6100E000BFD2
:1042F0007B68DB687A68D26891693A690A439A6197
:10430000012318461837BD4680BD00BF80B586B072
:1043100000AF7860396000237B610023BB603A689E
:1043200013469B001344DB0003F58C737A68134437
:104330000433FB60FB685A69FB689B69D31A7B6195
:10434000FB689A687B699A4202D2FB689B687B6132
:104350007B6903339B083B617A683B6804339B00AD
:1043600013449B689B69BB602EE0FB685A69FB683D
:104370009B69D31A7B61FB689A687B699A4202D277
:10438000FB689B687B617B6903339B083B61FB682F
:10439000D9683B68DAB27B699BB27868FBF75CFF4F
:1043A000FB68DA687B691A44FB68DA60FB689A6923
:1043B0007B691A44FB689A617A683B6804339B0006
:1043C00013449B689B69BB603B891A463B699A42D0
:1043D00009D9FB689A69FB685B699A4203D2FB685A
:1043E0005B69002BC1D1012318461837BD4680BD3B
:1043F00080B58AB000AF786000233B6100233B6248
:104400000023FB610023BB6100237B610023FB6071
:104410003B7C43F001033B747B681B697A6812693B
:1044200051683A69D2430A405A6078680021FCF723
:1044300003F900237B6212E07A687B6A04339B00F5
:1044400013449B68FF229A607A687B6A14339B004E
:1044500013445B68FF229A607B6A01337B627B684E
:104460005B781A467B6A9A42E6D87B681B694FF0F4
:10447000FF329A613B8C012262F30F033B847B8CF9
:10448000012262F30F037B847B681B693A6ADA615D
:104490003B7F43F008033B773B7F43F001033B77CF
:1044A0003B7F43F002033B777B681B69FA695A61E3
:1044B0003B7E43F001033B763B7E43F008033B76B3
:1044C0003B7E43F002033B767B681B69BA691A6145
:1044D0007B681B691B687B61BB8A6FF30A13BB8215
:1044E0007B681B697A691A607868FCF72FFF0023E4
:1044F000FB607B7B43F010037B737B68DB68FA68AF
:104500005A61054B1B681B69786898470123184658
:104510002837BD4680BD00BF4800002080B584B06C
:1045200000AF78607868FCF72FFB7B68DB68DB689E
:10453000BB607868FCF704FB0346032B0CD17B6857
:1045400000229A707B684FF400729A807B7A09226D
:1045500062F385037B720AE07B6801229A707B68B4
:1045600040229A807B7A052262F385037B727B6806
:10457000DB68BA68DA600023FB607B7B43F02003D2
:104580007B737B68DB68FA685A6101231846103731
:10459000BD4680BD80B584B000AF78600023FB606D
:1045A000084B1B68DB6978689847BB7B43F01003B6
:1045B000BB737B68DB68FA685A61012318461037C1
:1045C000BD4680BD4800002080B584B000AF786053
:1045D0000023FB60084B1B681B6A78689847BB7B0D
:1045E00043F02003BB737B68DB68FA685A610123E0
:1045F00018461037BD4680BD4800002080B487B003
:1046000000AF78600B46FB707B681B691B697B61A0
:104610007B681B695B6B3B61FB783A6922FA03F3A9
:10462000DB01DBB27A6913437B61FB787A68043380
:104630009B0013449B689A687B691340FB60FB688E
:1046400018461C37BD465DF8047B704780B584B0C2
:1046500000AF78600B46FB7078688121402202230E
:1046600000F02EFC786801214022022300F028FC93
:10467000786882210822032300F022FC0B4BFB60A8
:10468000FB68043302221A70FB68053300221A709B
:10469000074B1B68984778680121064A402300F0C1
:1046A00099FC002318461037BD4680BD68000020E5
:1046B000980000208809002080B582B000AF7860A3
:1046C0000B46FB707868812100F04AFC7868012174
:1046D00000F046FC7868822100F042FC034B5B68E6
:1046E0009847002318460837BD4680BD9800002033
:1046F00080B584B000AF786039603A23FB81404BCD
:10470000BB603B681B7803F06003002B3FD0202B7D
:1047100037D13B68DB88002B29D03B681B78DBB2A4
:104720005BB2002B11DA374B9B683A68527811461E
:104730003A68D2880846344998473B68DB887868ED
:1047400031491A4600F0D4FD19E03B685B781A46FF
:104750002E4B1A603B68DB881A462D4B1A603B686B
:10476000DB88786828491A4600F0F6FD07E0254BFB
:104770009B683A685278104600210022984700232F
:104780003AE078683968FFF7A7F9022334E03B681C
:104790005B780A2B18D00B2B1CD0062B2BD13B6837
:1047A0005B881B0A9BB2212B07D11A4BBB603B686D
:1047B000DB883A2B28BF3A23FB81FB897868B968EC
:1047C0001A4600F095FD16E078681349012200F0C2
:1047D0008FFD10E03B685B88DBB2002B06D13B68A5
:1047E0005B88DBB21A460C4B1A6003E078683968C4
:1047F000FFF772F900BF002318461037BD4680BD91
:10480000B500002098000020CC090020F000002016
:10481000DC010020BE000020C801002080B582B06D
:1048200000AF78600A4B1B68FF2B0BD0094B9B68CD
:10483000074A1168084A1268084608499847044B15
:10484000FF221A60002318460837BD4680BD00BF0E
:10485000F000002098000020DC010020CC0900209E
:1048600080B483B000AF78600B46FB70002318461D
:104870000C37BD465DF8047B704700BF80B582B041
:1048800000AF78600B46FB70FA78796813469B009E
:104890001344DB000B4403F562735B689AB20A4B66
:1048A0001A800A4B1B69084A128809481146984722
:1048B00078680121064A402300F08CFB002318464B
:1048C0000837BD4680BD00BFC80900209800002001
:1048D0008809002080B582B000AF7860084B1B6863
:1048E000591C074A1160052B05D1054B00221A609F
:1048F000786800F007F8002318460837BD4680BDE9
:10490000E001002080B483B000AF78600C37BD4672
:104910005DF8047B704700BF80B483B000AF0346EE
:104920003960FB713B6843221A80034B18460C37F1
:10493000BD465DF8047B7047AC00002080B588B0B0
:1049400000AF4FF480400121FDF736FD0220012128
:10495000FDF7F6FC2B480D210522FEF78BF82948C0
:104960000E210522FEF786F826480F210522FEF7C4
:1049700081F84FF46043BB6102233B7702237B77CE
:104980000023BB770223FB7707F118031D48194664
:10499000FDF7C6FF4FF48053BB6101233B7707F15E
:1049A000180318481946FDF7BBFF0023BB804FF4DE
:1049B0008273FB8000233B8100237B810023BB812A
:1049C0004FF40073FB8100233B8200237B8207238B
:1049D000BB823B1D0C48194600F0D6F80A4801215D
:1049E00000F016F907484FF48051FEF727F803202E
:1049F00000F052FD03484FF48051FEF72DF82037A8
:104A0000BD4680BD000402400038004090B585B02E
:104A100000AF03463960FB710023FB6028484FF468
:104A20008051FEF70BF800BF2648022100F02CF958
:104A30000346002BF8D0FB795B009BB243F0800368
:104A40009BB29BB21F48194600F010F900BF1D48E9
:104A5000012100F019F90346002BF8D0194800F0A5
:104A6000F7F80023FB601FE000BF1648022100F0AA
:104A70000BF90346002BF8D01248FF2100F0F6F89E
:104A800000BF1048012100F0FFF80346002BF8D0CA
:104A9000FB683A68D4180B4800F0DAF80346DBB23A
:104AA0002370FB680133FB60FB68022BDCDD0448EC
:104AB0004FF48051FDF7D0FF1437BD4690BD00BFC5
:104AC000000402400038004080B584B000AF0346C7
:104AD0003960FB710023FB6029484FF48051FDF7DA
:104AE000ADFF00BF2748022100F0CEF80346002B9F
:104AF000F8D0FB795B009AB23B681B78DB09DBB22C
:104B000013439BB29BB21F48194600F0AFF8002335
:104B1000FB601EE000BF1B48022100F0B5F8034611
:104B2000002BF8D0FB683A6813441B785B009AB2FC
:104B3000FB68013339680B441B78DB09DBB2134394
:104B40009BB29BB20F48194600F090F8FB68013306
:104B5000FB60FB68022BDDDD0A4800F079F800BF3E
:104B60000848012100F090F80346002BF8D00448D3
:104B70004FF48051FDF770FF1037BD4680BD00BF78
:104B8000000402400038004080B485B000AF786077
:104B900039600023FB817B681B88FB81FB8903F460
:104BA0004153FB813B681A883B685B8813439AB288
:104BB0003B689B8813439AB23B68DB8813439AB2E5
:104BC0003B681B8913439AB23B685B8913439AB2D3
:104BD0003B689B8913439AB23B68DB8913439AB2C3
:104BE000FB891343FB817B68FA891A807B689B8B66
:104BF0009BB223F400639AB27B689A833B681A8A5B
:104C00007B681A821437BD465DF8047B704700BF8D
:104C100080B483B000AF78600B46FB70FB78002B4C
:104C200008D07B681B889BB243F040039AB27B6834
:104C30001A8007E07B681B889BB223F040039AB27E
:104C40007B681A800C37BD465DF8047B704700BF57
:104C500080B483B000AF78607B689B899BB21846B4
:104C60000C37BD465DF8047B704700BF80B483B04D
:104C700000AF78600B467B807B687A889A810C371E
:104C8000BD465DF8047B704780B485B000AF7860A6
:104C90000B467B800023FB737B681B899AB27B8861
:104CA00013409BB2002B02D00123FB7301E00023D1
:104CB000FB73FB7B18461437BD465DF8047B7047D9
:104CC00080B483B000AF7860034B7A685A610C37C8
:104CD000BD465DF8047B7047003C014080B483B062
:104CE00000AF7860054A7B6843F0BF6343F400334C
:104CF000D3600C37BD465DF8047B704700ED00E0E3
:104D000080B485B000AF78600023FB730023BB73D1
:104D10000F237B737B68DB78002B37D0254BDB6858
:104D2000DB4303F4E0631B0AFB73FB7BC3F1040367
:104D3000BB737A7BFB7B42FA03F37B737B685B7804
:104D40001A46BB7B02FA03F3FB737B689A787B7B82
:104D50001340DAB2FB7B1343FB73FB7B1B01FB733A
:104D6000154A7B681B781344FA7B83F80023124BA7
:104D70007A6812785209D2B27968097801F01F0175
:104D8000012000FA01F143F822100EE00A4B7A6884
:104D900012785209D2B27968097801F01F01012016
:104DA00000FA01F1203243F822101437BD465DF8B5
:104DB000047B704700ED00E000E100E080B584B0C6
:104DC00000AF78600B46FB70FB7878681946FBF7FC
:104DD000A7FA7B68012283F812217B68002283F8FE
:104DE00014210023FB6024E0FA6813469B0013445F
:104DF000DB0003F58C737A6813440433BB60BB6833
:104E000001225A70FB68DAB2BB681A70FB689AB26A
:104E1000BB68DA80BB680022DA70BB6840229A6007
:104E2000BB680022DA60BB6800225A61FB6801336C
:104E3000FB607B685B781A46FB689A42D4D80023F3
:104E4000FB6024E0FA6813469B001344DB0003F583
:104E50005C737A6813440433BB60BB6800225A70E9
:104E6000FB68DAB2BB681A70FB689AB2BB68DA807A
:104E7000BB680022DA70BB6840229A60BB680022DF
:104E8000DA60BB6800225A61FB680133FB607B6813
:104E90005B781A46FB689A42D4D87868FBF7B0FB77
:104EA0007868FBF7F7FA78680021FBF72FFC786841
:104EB000FBF7B2FC7868FBF787FB1037BD4680BD77
:104EC00080B584B000AF7860F9703A80BB70FB7831
:104ED0005BB2002B0DDAFB7803F07F0213469B00D8
:104EE0001344DB0003F58C737A6813440433FB60CE
:104EF0000CE0FB7803F07F0213469B001344DB00B9
:104F000003F55C737A6813440433FB60FB7803F0A9
:104F10007F03DAB2FB681A70FB78DB09DBB21A4652
:104F2000FB685A703A88FB689A60FB68BA78DA7056
:104F3000FB685B78002B04D0FB681B781A46FB6883
:104F4000DA80BB78022B02D1FB6800221A717868E4
:104F5000F968FBF755FE002318461037BD4680BDA3
:104F600080B584B000AF78600B46FB70FB785BB215
:104F7000002B0DDAFB7803F07F0213469B001344ED
:104F8000DB0003F58C737A6813440433FB600CE098
:104F9000FB7803F07F0213469B001344DB0003F50C
:104FA0005C737A6813440433FB60FB7803F07F037F
:104FB000DAB2FB681A70FB78DB09DBB21A46FB68D1
:104FC0005A707868F968FBF789FE00231846103795
:104FD000BD4680BD80B586B000AFF8607A600A46F5
:104FE000FA723B81FB7A03F07F0213469B00134465
:104FF000DB0003F55C73FA68134404337B617B695F
:105000007A68DA603A897B695A617B6900229A6121
:105010007B6900225A70FB7A03F07F03DAB27B6966
:105020001A70FB68DB78012B02D17A687B691A6100
:105030007B691B78002B04D1F8687969FBF7D4FFF2
:1050400003E0F8687969FBF78FFE002318461837EC
:10505000BD4680BD80B586B000AFF8607A603B6029
:105060000B46FB72FB7A03F07F0213469B0013444E
:10507000DB0003F58C73FA68134404337B617B69AE
:1050800001225A70FB7A03F07F03DAB27B691A704F
:105090007B697A68DA607A687B691A617B690022C9
:1050A0009A617B693A685A617B691B78002B04D14D
:1050B000F8687969FBF798FF03E0F8687969FBF70E
:1050C00053FE002318461837BD4680BD80B584B016
:1050D00000AF78600B46FB70FB785BB2002B0DDAFB
:1050E000FB7803F07F0213469B001344DB0003F5BB
:1050F0008C737A6813440433FB600AE0FA78134631
:105100009B001344DB0003F55C737A68134404339B
:10511000FB60FB6801229A70FB7803F07F03DAB230
:10512000FB681A70FB78DB09DBB21A46FB685A7021
:105130007868F968FCF742F8002318461037BD4636
:1051400080BD00BF80B584B000AF78600B46FB70B7
:10515000FB785BB2002B0DDAFB7803F07F0213467D
:105160009B001344DB0003F58C737A68134404330B
:10517000FB600AE0FA7813469B001344DB0003F55A
:105180005C737A6813440433FB60FB6800229A70F6
:10519000FB7803F07F03DAB2FB681A70FB78DB0957
:1051A000DBB21A46FB685A707868F968FCF74AF86F
:1051B000002318461037BD4680BD00BF80B485B0BF
:1051C00000AF78600B46FB700023FB60FB7803F0B8
:1051D0007F03DAB2BB8962F30A13BB817B681B6968
:1051E0007A6812691168FA680A431A601437BD4672
:1051F0005DF8047B704700BF80B400AFBD465DF82A
:10520000047B704780B400AFFEE700BF80B400AFFE
:10521000FEE700BF80B400AFFEE700BF80B400AF80
:10522000FEE700BF80B400AFBD465DF8047B704769
:1052300080B400AFBD465DF8047B704780B400AF1A
:10524000BD465DF8047B704780B400AFBD465DF895
:10525000047B704780B500AF0F48012100F058FA79
:105260000346002B16D00C48012100F07BFA0B4BB3
:105270001B88B3F5967F06D2084B1B8801339AB280
:10528000064B1A8006E00120FCF782FA0248002152
:1052900000F0FAF9184680BD00040040E401002047
:1052A00080B400AFBD465DF8047B704780B500AFA9
:1052B000094B9B7A002B0AD0084B084A126822F04F
:1052C00006021A60FDF7D2FE0348FCF777F84FF4A8
:1052D0008020FFF7F5FC80BD2402002010ED00E0E7
:1052E00080B500AF0148FEF761FC80BD24020020BC
:1052F00080B586B000AFF860B9601346FB8000232C
:10530000FB75FA88FB68C3F83C21FA88FB68C3F890
:105310003821FB68022283F81121FB88F8680021FC
:10532000BA68FFF797FEFB7D18461837BD4680BD6B
:1053300080B586B000AFF860B9601346FB800023EB
:10534000FB75FB88F8680021BA68FFF783FEFB7DD8
:1053500018461837BD4680BD80B586B000AFF860EE
:10536000B9601346FB800023FB75FA88FB68C3F81D
:105370009423FA88FB68C3F89023FB68032283F820
:105380001121FB88F8680021BA68FFF723FEFB7D36
:1053900018461837BD4680BD80B586B000AFF860AE
:1053A000B9601346FB800023FB75FB88F868002179
:1053B000BA68FFF70FFEFB7D18461837BD4680BD63
:1053C00080B584B000AF78600023FB737B68042253
:1053D00083F811217868002100220023FFF73AFEAC
:1053E0007868FBF7B3FFFB7B18461037BD4680BDDE
:1053F00080B584B000AF78600023FB737B68052222
:1054000083F811217868002100220023FFF7E2FDD4
:105410007868FBF79BFFFB7B18461037BD4680BDC5
:1054200080B582B000AF08200121FCF789FF01237D
:105430003B710023BB714FF4F0533B600023FB71C1
:1054400001237B713B4603481946FDF769FA08378B
:10545000BD4680BD000C024080B582B000AF03465F
:10546000FB80FB8803481946FDF7E8FA0837BD467C
:1054700080BD00BF000C024080B582B000AF034683
:10548000FB80FB8803481946FDF7E6FA0837BD465E
:1054900080BD00BF000C024080B483B000AF034663
:1054A000FB80264B254A126C42F004021A64244BFE
:1054B0004AF20F421A85224B214A128892B222F0F8
:1054C000100292B21A801E4B1D4A128892B242F00C
:1054D000800292B21A801A4B4FF6FF72DA62184BB2
:1054E000174A928A92B242F0010292B29A82144B07
:1054F000134A128892B242F0010292B21A80104B03
:1055000000225A620E4B0E4A128892B242F00102F9
:1055100092B21A8000BF0A4B5A6AFB885B009A421B
:10552000F9D9074B064A128892B222F0010292B2D0
:105530001A800C37BD465DF8047B70470038024086
:105540000008004080B584B000AF0020FCF720F9CF
:105550004FF48060FFF7C2FB1D233B7306237B7370
:105560000023BB730123FB7307F10C031846FFF7FD
:10557000C7FB02200121FCF71FFF4AF20F433B80CB
:1055800000237B8040F2CF737B6000233B813B464E
:105590000748194600F00EF805480121012200F0E5
:1055A00093F80348012100F06FF81037BD4680BD25
:1055B0000004004080B485B000AF786039600023FB
:1055C000FB817B681B88FB817A68284B9A4213D049
:1055D0007A68274B9A420FD07B68B3F1804F0BD08B
:1055E0007A68244B9A4207D07A68234B9A4203D0B8
:1055F0007A68224B9A4208D1FB8923F07003FB8121
:105600003B685A88FB891343FB817A681C4B9A429A
:105610000CD07A681B4B9A4208D0FB8923F4407364
:10562000FB813B681A89FB891343FB817B68FA89FC
:105630001A803B685A687B68DA623B681A887B6824
:105640001A857A68094B9A4203D07A68084B9A42C5
:1056500004D13B689B7A1A467B681A867B680122D4
:105660009A821437BD465DF8047B70470000014004
:10567000000401400004004000080040000C00400D
:10568000001000400014004080B483B000AF786088
:105690000B46FB70FB78002B08D07B681B889BB205
:1056A00043F001039AB27B681A8007E07B681B888D
:1056B0009BB223F001039AB27B681A800C37BD4677
:1056C0005DF8047B704700BF80B483B000AF7860A2
:1056D00013460A467A807B707B78002B08D07B6863
:1056E0009B899AB27B8813439AB27B689A8109E0BE
:1056F0007B689B899AB27B88DB439BB213409AB24A
:105700007B689A810C37BD465DF8047B704700BF0B
:1057100080B485B000AF78600B467B800023FB73BC
:105720000023BB8100237B817B681B8A9AB27B8824
:105730001340BB817B689B899AB27B8813407B8135
:10574000BB89002B05D07B89002B02D00123FB7382
:1057500001E00023FB73FB7B18461437BD465DF860
:10576000047B704780B483B000AF78600B467B80C9
:105770007B88DB439AB27B681A820C37BD465DF8A2
:10578000047B7047000000002DE9F84F55EC104BEA
:10579000C5F30A57A7F2FF36132EA946AA4610EE04
:1057A000108A1FDC002E4CDB434F374107EA05030C
:1057B000234315D03EA3D3E9002351EC100B00F096
:1057C000FDF80022002300F03BFD28B1002D4BDB4B
:1057D0002AEA07094FF000084B46424643EC102BDB
:1057E000BDE8F88F332E0CDDB6F5806FF8D151ECA3
:1057F000100B22460B4600F0E1F841EC100BBDE81F
:10580000F88FA7F213434FF0FF3B2BFA03FB1BEA81
:10581000040FE5D026A3D3E9002351EC100B00F0D0
:10582000CDF80022002300F00BFD0028D4D0002D7D
:1058300021DB28EA0B08D1464B46424643EC102BAD
:10584000CEE71BA3D3E9002351EC100B00F0B6F810
:105850000022002300F0F4FC0028BDD0002D18DB4E
:105860004FF00008C146B7E74FF4801A4AFA06F62F
:1058700006EB050AACE7142E14D0C7F586670123A2
:10588000033703FA07F717EB040828BF05EB030AF1
:10589000CFE725F00042094B224318BF99464FF04D
:1058A000000899E705F1010AC3E700BFAFF30080E4
:1058B0009C7500883CE4377EFFFF0F000000F0BFBE
:1058C00053EC102B70B5C3F30A54002BA4F2FF3134
:1058D000C3F31305ACBF01264FF0FF36132945F47F
:1058E00080150CDC002933DB4FF40020084105440F
:1058F000C1F1140125FA01F006FB00F070BD1E296C
:105900000CD833290FDDA4F21340A4F233448540B0
:10591000A24045EA020006FB00F070BD51EC100BFE
:1059200000F098FC70BDA4F213444FF00043E34034
:105930009A18C1F1340128BF0135202905FA04F570
:1059400014BF22FA01F00020284306FB00F070BDCE
:1059500001310CBF3046002070BD00BF10EE102A90
:10596000C2F3C7537F3B162B10EE101A0FDC002B2F
:1059700015DB0E48184110420BD04FF4800242FA5A
:1059800003F3194421EA000000EE100A7047802B4F
:1059900002D000EE102A704730EE000A7047013343
:1059A00002F00040F0D140F07E50EDE7FFFF7F00B5
:1059B00081F0004102E000BF83F0004330B54FEAC0
:1059C00041044FEA430594EA050F08BF90EA020F2D
:1059D0001FBF54EA000C55EA020C7FEA645C7FEAC0
:1059E000655C00F0E2804FEA5454D4EB5555B8BFE3
:1059F0006D420CDD2C4480EA020281EA030382EA54
:105A0000000083EA010180EA020281EA0303362DE5
:105A100088BF30BD11F0004F4FEA01314FF4801CB8
:105A20004CEA113102D0404261EB410113F0004FCA
:105A30004FEA03334CEA133302D0524263EB430381
:105A400094EA050F00F0A780A4F10104D5F1200E1F
:105A50000DDB02FA0EFC22FA05F2801841F100017A
:105A600003FA0EF2801843FA05F359410EE0A5F14E
:105A700020050EF1200E012A03FA0EFC28BF4CF07F
:105A8000020C43FA05F3C01851EBE37101F0004535
:105A900007D54FF0000EDCF1000C7EEB00006EEB42
:105AA0000101B1F5801F1BD3B1F5001F0CD34908CC
:105AB0005FEA30004FEA3C0C04F101044FEA445223
:105AC00012F5800F80F09A80BCF1004F08BF5FEAAA
:105AD000500C50F1000041EB045141EA050130BD8A
